:020000040000FA
:040000001FEF62F09C
:10C3BA00FFEC61F0C5801200FFEC61F0C584120049
:10C3CA00FFEC61F002C0C9FF1200046E8C940450A5
:10C3DA00F6EC61F01200046E8C840450F6EC61F005
:10C3EA001200036E03380F0B08EC62F0035008ECDE
:10C3FA0062F01200C7B4FED7C5CF01F01F0E0116B6
:10C40A00D8B41200F7D7026E8C500F0B8C6E02381C
:10C41A00F00B8C108C6E7BEC62F012000250030B56
:10C42A00AA6E01C0A9FFA69CA69EA68000F000F0F5
:10C43A00A850120001EE00F03C0EEE6AE806FDE19B
:10C44A0000EEF5F00A0EEE6AE806FDE1000EF86E5F
:10C45A000001FAEF6BF0026EFFEC61F0C586FFECAB
:10C46A0061F0C9CF03F0FFEC61F002B002D0C59AC7
:10C47A0001D0C58AC588035012000B500D02F3CFB4
:10C48A000FF0F4CF10F00B500E02F35010260C50A0
:10C49A000D02F35010260FC00BF010C00CF0120062
:10C4AA00680E706E000E716E000E5E6E000E5F6E8C
:10C4BA0066C060F067C061F0700E626E000E636E57
:10C4CA00E5EC63F012000A6E0AC009F00F0E0916B5
:10C4DA000AC001F0026A000E046E100E036E22EC0E
:10C4EA0065F001500A0DF35009241200000EF2BE45
:10C4FA00010E016EF29E8C86140EE82EFED700D035
:10C50A008C96530EE82EFED700F001B002D0F29EB0
:10C51A0001D0F28E120001C003F002C004F002D072
:10C52A00014A022A01C0D9FF02C0DAFFDF50D8A4AB
:10C53A00F7D70350015C016E04500258026E1200D4
:10C54A00046E530EE82EFED700F082B4FED7DDEC5F
:10C55A0061F0000E036E100E026EE5EC61F004C08D
:10C56A0002F0036AE5EC61F0E1EC61F01200D00E32
:10C57A00036EFF0E046E01C005F002C006F0035000
:10C58A00052604500622065006E10A0E055CD8B0BC
:10C59A0002D0010E01D0000E016E026A1200BF0E17
:10C5AA00036EFF0E046E01C005F002C006F00350D0
:10C5BA00052604500622065006E11A0E055CD8B07C
:10C5CA0002D0010E01D0000E016E026A12009F0E07
:10C5DA00036EFF0E046E01C005F002C006F00350A0
:10C5EA00052604500622065006E11A0E055CD8B04C
:10C5FA0002D0010E01D0000E016E026A12009F0ED7
:10C60A00036EFF0E046E200E0110056E000E02105E
:10C61A00066E0350052604500622065006E11A0E3D
:10C62A00055CD8B002D0010E01D0000E016E026A7C
:10C63A001200000E146E000E136E0BD012C005F01D
:10C64A00066A10C007F011C008F073EC64F0134AD0
:10C65A00142A13500E24D96E14500F20DA6EDF50AC
:10C66A00126E1250D8B41200E9D70250030BAA6E08
:10C67A0001C0A9FF03C0A8FFA69EA69CA684000E1F
:10C68A00F2BE010E046EF29E550EA76EAA0EA76E9A
:10C69A00A682A6B2FED704B002D0F29E01D0F28ED4
:10C6AA00A6941200010E076E200E01180210D8B4CB
:10C6BA0014D0F70E036EFF0E046E01C005F002C01F
:10C6CA0006F00350052604500622065004E1050E22
:10C6DA00055CD8A002D0000E076E07C001F0026AFE
:10C6EA00120003500410D8B418D0010E056E04D0FD
:10C6FA00D89003360436052A04AEFAD70350015CF3
:10C70A0004500258D8A004D00350015E0450025AC3
:10C71A00D89004320332052EF1D701C001F002C0CD
:10C72A0002F012009F0E096EFF0E0A6E07C00BF090
:10C73A0008C00CF009500B260A500C220C5006E1D6
:10C74A001A0E0B5CD8B002D0010E01D0000E0D6E8D
:10C75A000E6A0D500E10D8B405D05F0E0714076E7E
:10C76A00086A120007C007F008C008F01200000E9D
:10C77A00066E000E056E03500410D8B41CD0010ECC
:10C78A00076E04D0D89003360436072A04AEFAD7C7
:10C79A00D890053606360350015C04500258D8A0DA
:10C7AA0005D00350015E0450025A0580D890043225
:10C7BA000332072EEDD705C001F006C002F01200C1
:10C7CA0060C064F061C065F0000E0001F66F000EF3
:10C7DA00F56F13D05EC047F05FC048F0640E496E33
:10C7EA00000E4A6E62C04BF063C04CF044EC75F028
:10C7FA0047500001F5274850F62364C0F6FF65C08C
:10C80A00F7FF0800F5500009D8A4E4D7F5C05EF098
:10C81A00F6C05FF01200C69A94869488800E016E64
:10C82A00960E026E980E036E000E046E0EC012F083
:10C83A000FC013F010C014F011C015F0020ED890FA
:10C84A001236133614361536E82EF9D712C005F00B
:10C85A0013C006F014C007F015C008F0E1EC64F04C
:10C86A000104C86E800EC76E280EC66E000EC56E15
:10C87A001200310E056EB20EE82EFED7052EFCD739
:10C88A0000D08C94030E08EC62F0110E056E3A0E7D
:10C89A00E82EFED7052EFCD700D0030E08EC62F076
:10C8AA007D0EE82EFED7320EF6EC61F0280EF6EC7D
:10C8BA0061F0080EF6EC61F0010EF6EC61F0110E73
:10C8CA00056E3A0EE82EFED7052EFCD700D0060ECE
:10C8DA00F6EC61F00F0EEAEC61F012000750081056
:10C8EA00D8B404D007500810D8A404D00550F0ECEE
:10C8FA0061F0120020EE04F00750D9260850DA221F
:10C90A00DE50DE10D8B416D020EE04F00750D92637
:10C91A000850DA2210EE02F00750E1260850E2220F
:10C92A00DE50E65CE650800A0D6EDE50800A0D5835
:10C93A00D8B0120020EE02F00750D9260850DA22A9
:10C94A00DE2A000EDD221200000E066E02AE06D0AE
:10C95A00016C021ED8B0022A010E066E04AE04D083
:10C96A00036C041ED8B0042A03500410D8B418D09B
:10C97A00010E056E04D0D89003360436052A04AE9B
:10C98A00FAD70350015C04500258D8A004D00350CF
:10C99A00015E0450025AD89004320332052EF1D7B0
:10C9AA000650D8B404D0016C021ED8B0022A01C0C5
:10C9BA0001F002C002F01200000E096E000E0A6EAB
:10C9CA00000E0B6E000E0C6E0550061007100810B4
:10C9DA00D8B42AD0010E0D6E06D0D8900536063688
:10C9EA00073608360D2A08AEF8D7D89009360A361F
:10C9FA000B360C360550015C065002580750035896
:10CA0A0008500458D8A009D00550015E0650025AB1
:10CA1A000750035A0850045A0980D890083207323E
:10CA2A00063205320D2EE1D709C001F00AC002F024
:10CA3A000BC003F00CC004F01200000E066E04AE28
:10CA4A0006D0036C041ED8B0042A010E066E02AE8C
:10CA5A0006D0016C021ED8B0022A010E061A000E78
:10CA6A00086E000E076E03500410D8B41CD0010ED5
:10CA7A00056E04D0D89003360436052A04AEFAD7D8
:10CA8A00D890073608360350015C04500258D8A0E3
:10CA9A0005D00350015E0450025A0780D890043230
:10CAAA000332052EEDD70650D8B404D0076C081E01
:10CABA00D8B0082A07C001F008C002F0120000012D
:10CACA00FBA10AD017C00EF018C00FF015C010F065
:10CADA0016C011F01EEC63F01ABE05D019C01EF084
:10CAEA001AC01FF004D0000E1F6E000E1E6E000E3C
:10CAFA001D6E000E1C6E0CD0000E066E200E056E0A
:10CB0A0015C007F016C008F073EC64F01C4A1D2A21
:10CB1A001E501C5C1D50800A1B6E1F50800A1B5839
:10CB2A00D8A0EAD70001FBB10AD017C00EF018C08E
:10CB3A000FF015C010F016C011F01EEC63F017C00C
:10CB4A0001F018C002F090EC62F01E500124156E3C
:10CB5A001F500220166E120001C008F002C009F030
:10CB6A0003C00AF004C00BF00506D8A00606052883
:10CB7A000FE10628D8A40CD0000E026E000E016E3A
:10CB8A001200084A092A0A4A0B2A0506D8A00606EC
:10CB9A0008C0F6FF09C0F7FF0800F5500009D8B42D
:10CBAA001DD00AC0F6FF0BC0F7FF0800F5500009B8
:10CBBA00D8B414D005500610D8B410D008C0F6FF67
:10CBCA0009C0F7FF0800F5CF07F00AC0F6FF0BC04F
:10CBDA00F7FF0800F5500718D8B4D3D708C0F6FFF6
:10CBEA0009C0F7FF0800F5CF07F00AC0F6FF0BC02F
:10CBFA00F7FF0800F550075C016E026AD8A002062A
:10CC0A00120009500A100B100C100D100E100F1004
:10CC1A001010D8B43CD0010E116E0AD0D890093643
:10CC2A000A360B360C360D360E360F361036112AEA
:10CC3A0010AEF4D70950015C0A5002580B50035841
:10CC4A000C5004580D5005580E5006580F500758EE
:10CC5A0010500858D8A010D00950015E0A50025A44
:10CC6A000B50035A0C50045A0D50055A0E50065ACE
:10CC7A000F50075A1050085AD89010320F320E32FD
:10CC8A000D320C320B320A320932112ED3D701C0BF
:10CC9A0001F002C002F003C003F004C004F005C0B2
:10CCAA0005F006C006F007C007F008C008F0120039
:10CCBA002A342B34316E3150D8A409D0000E286E94
:10CCCA00000E296E000E2A6E000E2B6E120028C06E
:10CCDA002CF029C02DF02AC02EF02BC02FF0200EE8
:10CCEA0005D0D8902F322E322D322C32E82EF9D799
:10CCFA002C50306E2A8EFF0E2816FF0E2916FF0EB4
:10CD0A002A16000E2B16960E315E31AE0DD031501A
:10CD1A00800A970FD8A0D2D7D8902B322A3229323C
:10CD2A002832313EF9D70DD01F0E316407D0C6D74D
:10CD3A00D890283629362A362B3631063150D8A4CF
:10CD4A00F7D73050D8B408D02B1E2A1E291E286CBB
:10CD5A00000E29222A222B2228C028F029C029F0D5
:10CD6A002AC02AF02BC02BF01200010EEAEC61F067
:10CD7A00110E766E3A0EE82EFED7762EFCD700D02C
:10CD8A00800EEAEC61F09C0E666EFE0E676E55EC44
:10CD9A0062F0C00EEAEC61F0610E666EFF0E676E1D
:10CDAA0055EC62F0900EEAEC61F0540E666EFF0EDE
:10CDBA00676E55EC62F0D00EEAEC61F01F0E666EFB
:10CDCA00FF0E676E55EC62F081A2FED781380F0B19
:10CDDA000F0B0001FD6F19D072C0D9FF73C0DAFFC3
:10CDEA00030E11D072C0D9FF73C0DAFF050E0BD043
:10CDFA0074C0D9FF75C0DAFF010EDF6E72C0D9FFA9
:10CE0A0073C0DAFF000EDF6E11D0FD51766E776ABD
:10CE1A007750000AD8A40AD07650070AD8B4DCD7CB
:10CE2A000C0AD8B4DFD7040AD8B4E2D781A2120018
:10CE3A00FDD720EE11F0070EDE6AE806FDE2095082
:10CE4A000A100B100C100D100E100F101010D8B481
:10CE5A0046D0010E196E0AD0D89009360A360B361A
:10CE6A000C360D360E360F361036192A10AEF4D798
:10CE7A00D89011361236133614361536163617363A
:10CE8A0018360950015C0A5002580B5003580C50CE
:10CE9A0004580D5005580E5006580F500758105098
:10CEAA000858D8A011D00950015E0A50025A0B50F6
:10CEBA00035A0C50045A0D50055A0E50065A0F5078
:10CECA00075A1050085A1180D89010320F320E3279
:10CEDA000D320C320B320A320932192EC9D711C05F
:10CEEA0001F012C002F013C003F014C004F015C020
:10CEFA0005F016C006F017C007F018C008F01200B7
:10CF0A001350D8B405D0000E176E000E166E56D008
:10CF1A0011C016F012C017F051D0030E1614146E79
:10CF2A00000E1714156E14501510D8A40ED08A824C
:10CF3A008A868A9A8A9E1350D8B403D0164A172A28
:10CF4A0035D01606D8A0170631D0030E1614146E63
:10CF5A00000E1714156E14041510D8A408D08A925E
:10CF6A008A868A8A8A9E1350D8A4E8D7EAD7030EFB
:10CF7A001614146E000E1714156E020E14181510DE
:10CF8A00D8A404D08A928A968A8A0ED0030E1614DE
:10CF9A00146E000E1714156E030E14181510D8A46B
:10CFAA0005D08A828A968A9A8A8EDDD7050E146EF1
:10CFBA00370EE82EFED7142EFCD700F01350D8B443
:10CFCA0006D01150165C12501758D8A0A6D7135085
:10CFDA00D8A404D016501710D8A49FD78A928A963C
:10CFEA008A9A8A9E12001350D8B405D0000E176E82
:10CFFA00000E166E56D011C016F012C017F051D09E
:10D00A00030E1614146E000E1714156E1450151014
:10D01A00D8A40ED08A808A848A988A9C1350D8B45D
:10D02A0003D0164A172A35D01606D8A0170631D0CB
:10D03A00030E1614146E000E1714156E1404151030
:10D04A00D8A408D08A908A848A888A9C1350D8A443
:10D05A00E8D7EAD7030E1614146E000E1714156ECD
:10D06A00020E14181510D8A404D08A908A948A88BB
:10D07A000ED0030E1614146E000E1714156E030E3E
:10D08A0014181510D8A405D08A808A948A988A8C94
:10D09A00DDD7050E146E370EE82EFED7142EFCD7F8
:10D0AA0000F01350D8B406D01150165C125017581D
:10D0BA00D8A0A6D71350D8A404D016501710D8A4B5
:10D0CA009FD78A908A948A988A9C1200000E1F6EB3
:10D0DA00000E1E6E000E186E000E176E02D0114A58
:10D0EA00122A010E1D6E11C0F6FF12C0F7FF0800CA
:10D0FA00F550200AD8B418D0F70E136EFF0E146E2E
:10D10A0011C0F6FF12C0F7FF0800F550156E166A37
:10D11A001350152614501622165004E1050E155CFC
:10D12A00D8A002D0000E1D6E1DC019F01A6A19503F
:10D13A001A10D8B408D0D3D7000E186E010E176E85
:10D14A00114A122A2ED011C0F6FF12C0F7FF0800AA
:10D15A00F550136E146A1450000AD8A422D0135042
:10D16A002B0AD8B4EDD7060AD8B4E6D71AD01EC00F
:10D17A000BF01FC00CF0000E0E6E0A0E0D6E42EC84
:10D18A0062F011C0F6FF12C0F7FF0800F5500B5EFF
:10D19A00000E0C5A300E0B241E6E000E0C201F6E51
:10D1AA00CFD7D00E136EFF0E146E11C0F6FF12C049
:10D1BA00F7FF0800F550156E166A1350152614501D
:10D1CA001622165006E10A0E155CD8B002D0010EDE
:10D1DA0001D0000E1B6E1C6A1B501C10D8A4C7D7A6
:10D1EA0017501810D8A40DD01EC013F01FC014F089
:10D1FA00131E141E134A142A13C011F014C012F07D
:10D20A0012001EC011F01FC012F01200096E095060
:10D21A00D8A404AE1AD001C005F002C006F003C0BB
:10D22A0007F004C008F0051E061E071E081E052A80
:10D23A00000E06220722082205C00BF006C00CF0D9
:10D24A0007C00DF008C00EF008D001C00BF002C0F4
:10D25A000CF003C00DF004C00EF0015002100310D0
:10D26A000410D8A409D0000E016E000E026E000E42
:10D27A00036E000E046E1200960E0A6E06D00A2A7B
:10D28A00D8900E320D320C320B32000E0B14056E92
:10D29A00000E0C14066E000E0D14076EFE0E0E1410
:10D2AA00086E0550061007100810D8B40DD0E7D73D
:10D2BA000A2A010E0B26000E0C220D220E22D890ED
:10D2CA000E320D320C320B32000E0B14056E000EAC
:10D2DA000C14066E000E0D14076EFF0E0E14086E67
:10D2EA000550061007100810D8B407D0E1D70A066F
:10D2FA00D8900B360C360D360E360DBE03D0020E04
:10D30A000A60F5D70AA00D9ED8900A320AC005F025
:10D31A00066A076A086A05C008F0076A066A056AA3
:10D32A0005500B1206500C1207500D1208500E121F
:10D33A000950D8A404AE01D00E8E0BC001F00CC067
:10D34A0002F00DC003F00EC004F01200010EEAEC68
:10D35A0061F0110E766E3A0EE82EFED7762EFCD7C5
:10D36A0000D0800EEAEC61F0E70E666EFE0E676E84
:10D37A0055EC62F0C00EEAEC61F0ED0E666EFF0E3F
:10D38A00676E55EC62F0900EEAEC61F06C0E666E18
:10D39A00FE0E676E55EC62F0D00EEAEC61F01F0EDD
:10D3AA00666EFF0E676E55EC62F081A2FED7813879
:10D3BA000F0B0F0B0001FD6F6AD0000EFE6F2A0ED5
:10D3CA00FE6501D00FD0FE517424D96E000E75206F
:10D3DA00DA6EFEC001F0026A13EC62F0DF6E000141
:10D3EA00FE2BEDD772C0D9FF73C0DAFF030E4DD002
:10D3FA00000EFE6F2A0EFE6501D0F4D7FE5174248A
:10D40A00D96E000E7520DA6E2B0EFE25016E026AA9
:10D41A00000E022213EC62F0DF6E0001FE2BEAD747
:10D42A00000EFE6F2A0EFE6501D0DCD7FE51742471
:10D43A00D96E000E7520DA6E560EFE25016E026A4E
:10D44A00000E022213EC62F0DF6E0001FE2BEAD717
:10D45A00000EFE6F2A0EFE6501D0C4D7FE51742459
:10D46A00D96E000E7520DA6E810EFE25016E026AF3
:10D47A00000E022213EC62F0DF6E0001FE2BEAD7E7
:10D48A0072C0D9FF73C0DAFF000EDF6E17D0FD51EC
:10D49A00766E776A7750000AD8A410D07650000AC0
:10D4AA00D8B48BD7010AD8B4A3D7030AD8B4B8D74B
:10D4BA00060AD8B4CDD70B0AD8B4E2D781A2120093
:10D4CA00FDD7010EEAEC61F0110E766E3A0EE82EE7
:10D4DA00FED7762EFCD700D0800EEAEC61F0E70E7C
:10D4EA00666EFE0E676E55EC62F0C00EEAEC61F0F5
:10D4FA00860E666EFF0E676E55EC62F0900EEAECD1
:10D50A0061F06C0E666EFE0E676E55EC62F0D00E20
:10D51A00EAEC61F0BA0E666EFF0E676E55EC62F0C9
:10D52A0081A2FED781380F0B0F0B0001FD6F6ED061
:10D53A00000EFE6F2A0EFE6501D010D0FEC001F06B
:10D54A00026AFE517424D96E000E7520DA6EDF501D
:10D55A00036E3AEC63F00001FE2BECD772C0D9FFE0
:10D56A0073C0DAFF070E50D0000EFE6F2A0EFE655A
:10D57A0001D0F4D72B0EFE25016E026A000E02229C
:10D58A00FE517424D96E000E7520DA6EDF50036ED8
:10D59A003AEC63F00001FE2BE9D7000EFE6F2A0E6B
:10D5AA00FE6501D0DBD7560EFE25016E026A000E1B
:10D5BA000222FE517424D96E000E7520DA6EDF50F5
:10D5CA00036E3AEC63F00001FE2BE9D7000EFE6F02
:10D5DA002A0EFE6501D0C2D7810EFE25016E026AAF
:10D5EA00000E0222FE517424D96E000E7520DA6EE6
:10D5FA00DF50036E3AEC63F00001FE2BE9D772C0EC
:10D60A00D9FF73C0DAFF020EDF6E17D0FD51766EB6
:10D61A00776A7750000AD8A410D07650000AD8B496
:10D62A0087D7010AD8B4A0D7030AD8B4B6D7060A4E
:10D63A00D8B4CCD70B0AD8B4E2D781A21200FDD74E
:10D64A00010EEAEC61F0110E776E3A0EE82EFED763
:10D65A00772EFCD700D0800EEAEC61F06E0E666E73
:10D66A00FF0E676E20EE01F07450D9267550DA224B
:10D67A00DF50776E7750016E026A000E046E3C0E20
:10D68A00036E22EC65F001C068F002C069F055EC47
:10D69A0062F020EE01F07450D9267550DA22DF507C
:10D6AA00776E7750016E026A000E046E3C0E036EAE
:10D6BA00A9EC64F002BE06D002500AE10A0E015C2F
:10D6CA00D8B006D0FC0E666EFF0E676E55EC62F09F
:10D6DA00A40E666EFF0E676E20EE01F07450D92616
:10D6EA007550DA22DF50776E7750016E026A000EAB
:10D6FA00046E3C0E036EA9EC64F001C068F002C02F
:10D70A0069F055EC62F0C00EEAEC61F0030E666E49
:10D71A00FF0E676E20EE02F07450D9267550DA2299
:10D72A00DF50776E7750686E696A55EC62F0900E3A
:10D73A00EAEC61F0110E666EFF0E676E74C0D9FFD7
:10D74A0075C0DAFFDF50776E7750686E696A55ECFC
:10D75A0062F0D00EEAEC61F074C0D9FF75C0DAFF4E
:10D76A00DF50D8B406D0A70E666EFF0E676E55EC72
:10D77A0062F0E50E666EFF0E676E55EC62F081A2EE
:10D78A00FED781380F0B0F0B0001FD6F1DD074C03F
:10D79A00D9FF75C0DAFFDF50D8B424D072C0D9FFE0
:10D7AA0073C0DAFF040E0ED07650D8B406D072C019
:10D7BA00D9FF73C0DAFF060E05D072C0D9FF73C055
:10D7CA00DAFF070EDF6E0ED0FD51776E786A785059
:10D7DA00000AD8A407D077500B0AD8B4D8D7040ABD
:10D7EA00D8B4E2D781A21200FDD7000E0001F46F6F
:10D7FA00000E9D6F010E9A6F000E9B6F000E9C6FBC
:10D80A00000E896E000E926E000E8A6E9368000EEC
:10D81A008C6E000E956E000E8B6E000E946E000ECE
:10D82A008D6E000E966E9484928A9480928496806D
:10D83A0096820F0EC16E3EEC64F0A00E0E6E860E3E
:10D84A000F6E010E106E000E116E10EC64F00C0ECD
:10D85A00EAEC61F07CD0F40E726E000E736EDAECB4
:10D86A006FF075D0F40E726E000E736EC90E746E80
:10D87A00000E756E9B0E766E000E776E9C0E786E9D
:10D88A00000E796EA7EC7AF062D0F40E726E000E7A
:10D89A00736EC90E746E000E756E9D0E766E000E56
:10D8AA00776E9E0E786E000E796E9A0E7A6E000E64
:10D8BA007B6EAAEC6DF04BD0F40E726E000E736E96
:10D8CA009E0E746E000E756E9AC076F025EC6BF0A3
:10D8DA003ED0F40E726E000E736E9E0E746E000EC3
:10D8EA00756E9D0E766E000E776EF5EC70F02FD089
:10D8FA00F40E726E000E736EC90E746E000E756EA3
:10D90A0066EC6AF024D0F40E726E000E736E9E0EF0
:10D91A00746E000E756EABEC69F019D0F40E726E6F
:10D92A00000E736E9A0E746E000E756EBAEC66F087
:10D93A000ED0F40E726E000E736E9B0E746E000E95
:10D94A00756E9C0E766E000E776EE9EC77F000012C
:10D95A00F451986F996B9951000AD8A4F8D7985145
:10D96A00000AD8B478D7010AD8B47CD7030AD8B445
:10D97A008CD7010AD8B4A0D7070AD8B4AAD7010A03
:10D98A00D8B4B6D7030AD8B4BED7010AD8B4C6D712
:10D99A000F0AD8B4CED7DBD70001FAAFFB93FABF90
:10D9AA0005D0FA5108E1F905D8B005D0000E336E5A
:10D9BA00010E326E04D0F9C032F0FAC033F0F7C06B
:10D9CA0034F0F8C035F022C036F023C037F024C056
:10D9DA0038F025C039F026C03AF027C03BF028C0FD
:10D9EA003CF029C03DF0000E3F6E1F0E3E6E000E49
:10D9FA0001013B6F76D03E06D8A03F061C0E3E249E
:10DA0A00D96E010E3F20DA6E36C001F037C002F03F
:10DA1A0038C003F039C004F03AC005F03BC006F044
:10DA2A003CC007F03DC008F00A0E096E000E0A6EEF
:10DA3A00000E0B6E000E0C6E000E0D6E000E0E6EBA
:10DA4A00000E0F6E000E106E06EC66F001C02AF092
:10DA5A0002C02BF003C02CF004C02DF005C02EF03C
:10DA6A0006C02FF007C030F008C031F02A50300F3E
:10DA7A00DF6E3206D8A033063406D8A0350636C083
:10DA8A0001F037C002F038C003F039C004F03AC0E0
:10DA9A0005F03BC006F03CC007F03DC008F00A0E96
:10DAAA00096E000E0A6E000E0B6E000E0C6E000E52
:10DABA000D6E000E0E6E000E0F6E000E106E1EEC36
:10DACA0067F001C036F002C037F003C038F004C076
:10DADA0039F005C03AF006C03BF007C03CF008C078
:10DAEA003DF03E503F10D8B41BD036503710381096
:10DAFA0039103A103B103C103D10D8A47CD733BEE5
:10DB0A0005D0335002E13204D8B075D735BE08D0FB
:10DB1A00355003E13404D8A003D00001FBB36BD71E
:10DB2A0020C015F021C016F01C0E3E24176E010EFF
:10DB3A003F20186E34C019F035C01AF064EC65F055
:10DB4A0015C020F016C021F01200000E0001886FE7
:10DB5A00000E876F060EA5EC62F0010EEAEC61F08A
:10DB6A00110E0001806F3A0EE82EFED7802FFCD7E7
:10DB7A0000F0800EEAEC61F0B10E666EFF0E676E81
:10DB8A0055EC62F089988B929368000E8A6E20EEAB
:10DB9A0002F07450D9267550DA22000EDF6E000E9C
:10DBAA000001FE6F22D020EE02F07450D926755083
:10DBBA00DA22FE51040D74C080F075C081F0F35072
:10DBCA008027F4508123030E8025E16E000E812107
:10DBDA00E26EE750826F10EE02F07450E126755043
:10DBEA00E222E7508225DF6EFE2B74C0D9FF75C092
:10DBFA00DAFFDE50FE5DD8A0D6D782B4FED7DDECC0
:10DC0A0061F0000E036ED00E026EE5EC61F0000EBC
:10DC1A00036E000E026EE5EC61F0E1EC61F0DDEC02
:10DC2A0061F0000E036ED10E026EE5EC61F0000E9B
:10DC3A000001896F000E30EC62F00001806F816B89
:10DC4A008951020D000EF324D96E010EF420DA6E0A
:10DC5A0080C0DEFF81C0DDFF892B050E8965EAD70A
:10DC6A00010E30EC62F00001806F805101010C6FEF
:10DC7A000D6BE1EC61F001010E5168EC62F00001FC
:10DC8A00806F0101105168EC62F00001816F8151CF
:10DC9A003C0DF3CF82F0F4CF83F00101125168EC0E
:10DCAA0062F00001846F84510B6E0C6A0E0E0E6EC8
:10DCBA00100E0D6E42EC62F00B50000182270C50E0
:10DCCA00832380518225856F000E8321866F01018F
:10DCDA00005168EC62F00001806F0101025168ECAA
:10DCEA0062F00001816F81513C0DF3CF82F0F4CFD5
:10DCFA0083F00101045168EC62F00001846F8451E1
:10DD0A000B6E0C6A0E0E0E6E100E0D6E42EC62F069
:10DD1A000B50000182270C50832380518225876F84
:10DD2A00000E8321886F20EE01F07450D9267550B9
:10DD3A00DA228551875DDF6E76C0D9FF77C0DAFFB8
:10DD4A00000EDF6E7AC0D9FF7BC0DAFF000EDF6EED
:10DD5A0074C0D9FF75C0DAFF78C0E1FF79C0E2FF6D
:10DD6A002A0EDBCFE3FFE806FCE272C0D9FF73C0DC
:10DD7A00DAFF070EDF6E12000001FAAFFB93FABF5B
:10DD8A0005D0FA5108E1F905D8B005D0000E386E71
:10DD9A00010E376E04D0F9C037F0FAC038F0F7C078
:10DDAA0039F0F8C03AF0FBA904D0FE0E3926FF0E6E
:10DDBA003A2222C03BF023C03CF024C03DF025C0EB
:10DDCA003EF026C03FF027C040F028C041F029C0ED
:10DDDA0042F0000E446E1F0E436E000E01013B6FAF
:10DDEA0093D04306D8A044060F0E3B14456E466AEC
:10DDFA0046BE08D0465004E10A0E455CD8A002D0BF
:10DE0A00570E01D0300E4524456E000E4620466E50
:10DE1A00BF0E2B6EFF0E2C6E2A502D6E2E6A2B50C3
:10DE2A002D262C502E222E5006E11A0E2D5CD8B02B
:10DE3A0002D0010E01D0000E336E346A3350341012
:10DE4A00D8B427D09F0E2B6EFF0E2C6E200E4510D5
:10DE5A002D6E000E46102E6E2B502D262C502E2283
:10DE6A002E5006E11A0E2D5CD8B002D0010E01D058
:10DE7A00000E356E366A35503610D8B40AD045C011
:10DE8A0007F046C008F097EC63F007C045F008C0F9
:10DE9A0046F01C0E4324D96E010E4420DA6E45C0AA
:10DEAA00DFFF3706D8A038063906D8A03A063BC0A5
:10DEBA002BF03CC02CF03DC02DF03EC02EF03FC0F0
:10DECA002FF040C030F041C031F042C032F0050EB0
:10DEDA0009D0D8903232313230322F322E322D32AE
:10DEEA002C322B32E82EF5D72BC03BF02CC03CF05D
:10DEFA002DC03DF02EC03EF02FC03FF030C040F0A4
:10DF0A0031C041F032C042F044BE21D0445004E155
:10DF1A00020E435CD8A01BD03B503C103D103E1073
:10DF2A003F10401041104210D8A45BD738BE05D02C
:10DF3A00385002E13704D8B054D73ABE08D03A5024
:10DF4A0003E13904D8A003D00001FBB34AD700018A
:10DF5A00FBA916D04306D8A044061C0E4324D96E4A
:10DF6A00010E4420DA6E2AC0DFFF4306D8A0440619
:10DF7A001C0E4324D96E010E4420DA6E300EDF6E79
:10DF8A0020C015F021C016F01C0E4324176E010E96
:10DF9A004420186E39C019F03AC01AF064EC65F0E2
:10DFAA0015C020F016C021F01200010EEAEC61F053
:10DFBA00110E746E3A0EE82EFED7742EFCD700D0DE
:10DFCA00900EEAEC61F0C30E666EFF0E676E55ECBA
:10DFDA0062F0D00EEAEC61F04A0E666EFE0E676ED3
:10DFEA0055EC62F08B8A94D0DDEC61F0000E036E82
:10DFFA00D00E026EE5EC61F0000E036E000E026EAA
:10E00A00E5EC61F0E1EC61F0DDEC61F0000E036E2D
:10E01A00D10E026EE5EC61F0000E7D6E760E7D2467
:10E02A00D96EDA6A000EDA22000E30EC62F0DF6E88
:10E03A007D2A050E7D64F2D7010E30EC62F07C6E0B
:10E04A00E1EC61F0800EEAEC61F05B0E666EFE0EAA
:10E05A00676E7CC068F0696A7BC06AF06B6A7AC0D6
:10E06A006CF06D6A55EC62F0C00EEAEC61F0D80E05
:10E07A00666EFE0E676E78C068F0696A77C06AF0ED
:10E08A006B6A76C06CF06D6A55EC62F080A240D083
:10E09A00DDEC61F0000E036ED00E026EE5EC61F06D
:10E0AA00000E036E000E026EE5EC61F0E1EC61F029
:10E0BA00DDEC61F0000E036ED10E026EE5EC61F04C
:10E0CA00000E7E6E000E30EC62F0746E756A7E5041
:10E0DA00020D0E0EF324D96E010EF420DA6E74C00E
:10E0EA00DEFF75C0DDFF7E2A050E7E64EBD7010ECA
:10E0FA0030EC62F0746E745001011A6F1B6BE1EC24
:10E10A0061F072C0D9FF73C0DAFF010EDF6E120030
:10E11A0081A26AD781380F0B0F0B0001FD6F4CD01B
:10E12A00DDEC61F0000E036ED00E026EE5EC61F0DC
:10E13A00000E036E000E026EE5EC61F0E1EC61F098
:10E14A00DDEC61F0000E036ED10E026EE5EC61F0BB
:10E15A00000E7F6E000E30EC62F0746E756A7F50AE
:10E16A00020D0E0EF324D96E010EF420DA6E74C07D
:10E17A00DEFF75C0DDFF7F2A050E7F64EBD7010E37
:10E18A0030EC62F0746E745001011A6F1B6BE1EC93
:10E19A0061F072C0D9FF73C0DAFF010E0BD072C0F2
:10E1AA00D9FF73C0DAFF060E05D072C0D9FF73C05B
:10E1BA00DAFF080EDF6E11D0FD51746E756A755064
:10E1CA00000AD8A40AD07450030AD8B4A9D7040AFA
:10E1DA00D8B4E5D70C0AD8B4E8D781A21200FDD783
:10E1EA00010EEAEC61F0110E786E3A0EE82EFED7B7
:10E1FA00782EFCD700D0800EEAEC61F0CC0E666E69
:10E20A00FF0E676E76C0D9FF77C0DAFFDF50786EEF
:10E21A00010E7824686E696A000E692255EC62F074
:10E22A00C00EEAEC61F0040E666EFE0E676E76C0F2
:10E23A00D9FF77C0DAFFDF50786E7850040D74C0CA
:10E24A0079F075C07AF0F3507926F4507A22030EE9
:10E25A007924D96E000E7A20DA6EDF507B6E7B50FD
:10E26A00686E696A76C0D9FF77C0DAFFDF507C6EC4
:10E27A007C50040D74C07DF075C07EF0F3507D268D
:10E28A00F4507E22040E7D24D96E000E7E20DA6EB2
:10E29A00DF507F6E7F506A6E6B6A55EC62F0900EAB
:10E2AA00EAEC61F0F10E666EFD0E676E76C0D9FF7C
:10E2BA0077C0DAFFDF50786E7850040D74C079F0B9
:10E2CA0075C07AF0F3507926F4507A22050E792433
:10E2DA00D96E000E7A20DA6EDECF01F0DDCF02F0C1
:10E2EA00000E046E0A0E036EBCEC63F001C068F007
:10E2FA0002C069F076C0D9FF77C0DAFFDF507B6EC3
:10E30A007B50040D74C07CF075C07DF0F3507C2600
:10E31A00F4507D22050E7C24D96E000E7D20DA6E23
:10E32A00DECF01F0DDCF02F0000E046E0A0E036E9E
:10E33A0076EC63F001C06AF002C06BF055EC62F053
:10E34A00D00EEAEC61F0390E666EFE0E676E55EC81
:10E35A0062F081A2FED781380F0B0F0B0001FD6F0F
:10E36A004BD072C0D9FF73C0DAFF030E0CD076C04F
:10E37A00D9FF77C0DAFFDF50D8A407D074C0D9FF1D
:10E38A0075C0DAFF06D0DF6E48D076C0D9FF77C0F5
:10E39A00DAFFDF50786E78042AD076C0D9FF77C0CA
:10E3AA00DAFFDF50786E796AFF0E7A6EFF0E7B6EA7
:10E3BA0074C0D9FF75C0DAFFDF507C6E7D6A7A506F
:10E3CA007C267B507D2278507C180AE179507D1892
:10E3DA00D8A406D076C0D9FF77C0DAFF000ED3D70B
:10E3EA0076C0D9FF77C0DAFFDF50786E782876C01A
:10E3FA00D9FF77C0DAFFC7D7FD51786E796A7950AD
:10E40A00000AD8A40AD078500C0AD8B4B0D7020AA5
:10E41A00D8B4C3D7010AD8B4A4D781A21200FDD7B1
:10E42A002B50800B346E2B502B24366E2ABE36802E
:10E43A003650D8B40DD03628D8A408D0000E286E8D
:10E44A00000E296E000E2A6E000E2B6E2A8E06D042
:10E45A00000E286E000E296E000E2A6E000E2B6E1C
:10E46A002F50800B356E34503518D8A4348C2F5069
:10E47A002F24356E2EBE35803550D8B40DD03528B0
:10E48A00D8A408D0000E2C6E000E2D6E000E2E6E33
:10E49A00000E2F6E2E8E06D0000E2C6E000E2D6EE4
:10E4AA00000E2E6E000E2F6E3650355CD8B022D07C
:10E4BA0034AC02D0800E341A36C037F035C036F08C
:10E4CA0037C035F028C037F02CC028F037C02CF000
:10E4DA0029C037F02DC029F037C02DF02AC037F0F7
:10E4EA002EC02AF037C02EF02BC037F02FC02BF0E9
:10E4FA0037C02FF0000E376E365035C030F0316A13
:10E50A00305E000E315A31BE2CD0315004E11A0E61
:10E51A00305CD8A026D0285029102A102B10D8B445
:10E52A0002D0010E01D0000E376E000E286E000ECA
:10E53A00296E000E2A6E000E2B6E35C036F015D0ED
:10E54A0037A005D0D89037300109376E02D0D8905D
:10E55A00373228B0378E2B342B322A3229322832DE
:10E56A00362A3550365CD8A0EBD734BC28D0365082
:10E57A00D8A409D0000E286E000E296E000E2A6E4D
:10E58A00000E2B6E12002C5028262D5029222E50B8
:10E59A002A222F502B222BA071D037A005D0D89039
:10E5AA0037300109376E02D0D890373228B0378E0B
:10E5BA002B342B322A3229322832362A5FD02C5079
:10E5CA00285C2D5029582E502A582B50800A306E1C
:10E5DA002F50800A3058D8B025D028502C5C306E85
:10E5EA0029502D58316E2A502E58326E2B502F58E2
:10E5FA00336EFF0E3024286EFF0E3120296EFF0E77
:10E60A0032202A6EFF0E33202B6E800E341A376C9E
:10E61A003750D8A40FD0010E2826000E29222A220C
:10E62A002B2208D02C50285E2D50295A2E502A5AB7
:10E63A002F502B5A285029102A102B10D8A41CD03E
:10E64A003750D8A419D0000E286E000E296E000E7D
:10E65A002A6E000E2B6E1200D890283629362A36DA
:10E66A002B3637BE288037A002D0D88001D0D89068
:10E67A0037363650D8A436062AAEEED7000E356E97
:10E68A0037AE0BD037C030F07F0E3016D8B403D077
:10E69A00010E356E02D028B0FBD73550D8B420D041
:10E6AA00010E2826000E29222A222B222BA018D05E
:10E6BA0028C030F029C031F02AC032F02BC033F024
:10E6CA003334333232323132303230C028F031C052
:10E6DA0029F032C02AF033C02BF03628D8A4362AC3
:10E6EA003628D8B403D03650D8A40DD0000E286EE0
:10E6FA00000E296E000E2A6E000E2B6E3650D8A41C
:10E70A0002D0000E346E36A002D02A8E01D02A9E84
:10E71A00D89036302B6E34BE2B8E28C028F029C0F4
:10E72A0029F02AC02AF02BC02BF012001250800BBD
:10E73A001B6E12501224216E11BE21802150D8B4B2
:10E74A000DD02128D8A408D0000E0F6E000E106E2E
:10E75A00000E116E000E126E118E08D0000E0F6E92
:10E76A00000E106E000E116E000E126E1650800B07
:10E77A001B1A16501624206E15BE20802050D8B4BD
:10E78A000DD02028D8A408D0000E136E000E146EE7
:10E79A00000E156E000E166E158E08D0000E136E42
:10E7AA00000E146E000E156E000E166E2050D8B4B0
:10E7BA0003D02150D8A409D0000E0F6E000E106E9F
:10E7CA00000E116E000E126E120015500F02F3CFDA
:10E7DA0026F0F4CF27F026501C6E1D6A1E6A1F6AA7
:10E7EA002750226E236A246A256A14501002F3CF36
:10E7FA0026F0F4CF27F026501C26000E1D221E22DA
:10E80A001F2227502226000E2322242225221350BB
:10E81A001102F3CF26F0F4CF27F026501C26000E63
:10E82A001D221E221F2227502226000E23222422C6
:10E83A0025221EC01FF01DC01EF01CC01DF01C6A40
:10E84A0013501002F3CF26F0F4CF27F026501C26DF
:10E85A0027501D22000E1E22000E1F2214500F02E6
:10E86A00F3CF26F0F4CF27F026501C2627501D227E
:10E87A00000E1E22000E1F221EC01FF01DC01EF019
:10E88A001CC01DF01C6A13500F02F3CF26F0F4CF00
:10E89A0027F026501C2627501D22000E1E22000E8D
:10E8AA001F2215501002F3CF26F0F4CF27F026507E
:10E8BA00222627502322000E2422000E252214503D
:10E8CA001102F3CF26F0F4CF27F026502226275044
:10E8DA002322000E2422000E252215501102F3CF06
:10E8EA0026F0F4CF27F02650176E2750186E196AB3
:10E8FA001A6A19C01AF018C019F017C018F0176A66
:10E90A001750222618502322195024221A50252241
:10E91A001CC017F01DC018F01EC019F01FC01AF055
:10E92A00190E05D0D8901A32193218321732E82E39
:10E93A00F9D71750222618502322195024221A5088
:10E94A0025221EC01FF01DC01EF01CC01DF01C6A2F
:10E95A00205021C017F0186A1726000E1822820EBE
:10E96A001724266EFF0E1820276E0FD0D890223655
:10E97A002336243625361FBE2280D8901C361D36F3
:10E98A001E361F362606D8A0270624AEEFD7000E5D
:10E99A00206E1FAE17D0FF0E1C14176EFF0E1D142B
:10E9AA00186EFF0E1E14196E7F0E1F141A6E175062
:10E9BA00181019101A10D8B403D0010E206E02D004
:10E9CA0022B0FBD72050D8B41FD0010E2226000E49
:10E9DA0023222422252225A017D022C017F023C0E3
:10E9EA0018F024C019F025C01AF01A341A32193254
:10E9FA001832173217C022F018C023F019C024F0B9
:10EA0A001AC025F0264A272A27BE0DD0275003E12F
:10EA1A002628D8A008D0000E226E000E236E800E83
:10EA2A00246E7F0E20D027BE05D027500EE1260483
:10EA3A00D8B00BD0000E226E000E236E000E246E8C
:10EA4A00000E256E000E1B6E0FD026C021F0FF0EA1
:10EA5A002216FF0E23167F0E2416000E251621B04D
:10EA6A00248ED8902130256E1B50251222C00FF01B
:10EA7A0023C010F024C011F025C012F0120049C0C2
:10EA8A00D9FF4AC0DAFFDECFF6FFDDCFF7FF080075
:10EA9A00F550250AD8A47ED249C0D9FF4AC0DAFF68
:10EAAA00DE2A000EDD22000E0001F86F000EF76F5D
:10EABA00F7C0FBF0F8C0FCF0F969FA69000E526E73
:10EACA00000E19D00001FB8149C0D9FF4AC0DAFF04
:10EADA00DE2A000EDD2232D00001FB83F5D70001C9
:10EAEA00FB85F2D70001FB87EFD70001FB89ECD742
:10EAFA00000E526E010E516E21D049C0D9FF4AC094
:10EB0A00DAFFDECFF6FFDDCFF7FF0800F5504D6ED6
:10EB1A004E6A4E50000AD8A4EBD74D50200AD8B4FA
:10EB2A00E1D7030AD8B4E1D7080AD8B4D8D7060A75
:10EB3A00D8B4C8D71D0AD8B4CFD7DAD75150521093
:10EB4A00D8B4DBD70001FBB1FB9349C0D9FF4AC057
:10EB5A00DAFFDECFF6FFDDCFF7FF0800F5502A0A0D
:10EB6A00D8A423D049C0D9FF4AC0DAFFDE2A000E52
:10EB7A00DD224BC0D9FF4CC0DAFFDFCF4DF0020EC9
:10EB8A00DE26DFCF4EF0000EDD224DC0D9FF4EC08B
:10EB9A00DAFFDECFF7F0DDCFF8F0F8AF3FD0FB8138
:10EBAA00F76DF81FD8B0F82B39D049C0D9FF4AC041
:10EBBA00DAFFDECF11F0DDCF12F06BEC68F011C096
:10EBCA00F7F012C0F8F007D049C0D9FF4AC0DAFFFF
:10EBDA00DE2A000EDD22D00E4D6EFF0E4E6E49C0AB
:10EBEA00D9FF4AC0DAFFDECFF6FFDDCFF7FF080014
:10EBFA00F5504F6E506A4D504F264E50502250508D
:10EC0A0006E10A0E4F5CD8B002D0010E01D0000E08
:10EC1A00536E546A53505410D8A4D6D749C0D9FF5A
:10EC2A004AC0DAFFDECF01F0DDCF02F0F60E036E46
:10EC3A00FF0E046E000E066E020E056EB1EC65F054
:10EC4A0001500210D8A441D0020E49C0D9FF4AC0CF
:10EC5A00DAFFDE26000EDD224BC0D9FF4CC0DAFFF8
:10EC6A00DFCF4DF0020EDE26DFCF4EF0000EDD22A2
:10EC7A004DC0D9FF4EC0DAFFDECF4FF0DDCF50F0E6
:10EC8A004FC056F050C057F0586A596A5A6A5B6AC0
:10EC9A005C6A5D6A47C020F048C021F056C022F085
:10ECAA0057C023F058C024F059C025F05AC026F0A6
:10ECBA005BC027F05CC028F05DC029F0D1EC6CF095
:10ECCA0020C047F021C048F0120049C0D9FF4AC00D
:10ECDA00DAFFDECFF6FFDDCFF7FF0800F550750A41
:10ECEA00D8A440D049C0D9FF4AC0DAFFDE2A000EB4
:10ECFA00DD224BC0D9FF4CC0DAFFDFCF4DF0020E48
:10ED0A00DE26DFCF4EF0000EDD224DC0D9FF4EC009
:10ED1A00DAFFDECF4FF0DDCF50F04FC056F050C0D3
:10ED2A0057F0586A596A5A6A5B6A5C6A5D6A47C0F0
:10ED3A0020F048C021F056C022F057C023F058C036
:10ED4A0024F059C025F05AC026F05BC027F05CC0F9
:10ED5A0028F05DC029F0D1EC6CF020C047F021C04A
:10ED6A0048F0120049C0D9FF4AC0DAFFDECF01F0ED
:10ED7A00DDCF02F0F90E036EFF0E046E000E066E72
:10ED8A00020E056EB1EC65F001500210D8B416D02F
:10ED9A0049C0D9FF4AC0DAFFDECF01F0DDCF02F069
:10EDAA00F30E036EFF0E046E000E066E020E056E63
:10EDBA00B1EC65F001500210D8A456D049C0D9FF71
:10EDCA004AC0DAFFDECF4DF0DDCF4EF0010E4D2600
:10EDDA00000E4E224DC0F6FF4EC0F7FF0800F5CFD9
:10EDEA0055F0020E49C0D9FF4AC0DAFFDE26000EEE
:10EDFA00DD224BC0D9FF4CC0DAFFDFCF4DF0020E47
:10EE0A00DE26DFCF4EF0000EDD224DC0D9FF4EC008
:10EE1A00DAFFDECF4FF0DDCF50F04FC056F050C0D2
:10EE2A0057F0586A596A5A6A5B6A5C6A5D6A47C0EF
:10EE3A0020F048C021F056C022F057C023F058C035
:10EE4A0024F059C025F05AC026F05BC027F05CC0F8
:10EE5A0028F05DC029F055C02AF0C1EC6EF020C040
:10EE6A0047F021C048F0120049C0D9FF4AC0DAFF72
:10EE7A00DECFF6FFDDCFF7FF0800F550780AD8B4E9
:10EE8A000DD049C0D9FF4AC0DAFFDECFF6FFDDCF89
:10EE9A00F7FF0800F550580AD8A44DD049C0D9FF49
:10EEAA004AC0DAFFDECFF6FFDDCFF7FF0800F5CF65
:10EEBA0055F049C0D9FF4AC0DAFFDE2A000EDD222A
:10EECA004BC0D9FF4CC0DAFFDFCF4DF0020EDE2671
:10EEDA00DFCF4EF0000EDD224DC0D9FF4EC0DAFF63
:10EEEA00DECF4FF0DDCF50F04FC056F050C057F094
:10EEFA00586A596A5A6A5B6A5C6A5D6A47C020F056
:10EF0A0048C021F056C022F057C023F058C024F060
:10EF1A0059C025F05AC026F05BC027F05CC028F023
:10EF2A005DC029F055C02AF0C1EC6EF020C047F050
:10EF3A0021C048F0120049C0D9FF4AC0DAFFDECF2B
:10EF4A00F6FFDDCFF7FF0800F550250AD8A416D042
:10EF5A0049C0D9FF4AC0DAFFDE2A000EDD22000EC0
:10EF6A00066E250E056E47C007F048C008F073EC20
:10EF7A0064F0000E486E010E476E120049C0D9FFB8
:10EF8A004AC0DAFFDE2A000EDD22000E486E000EAD
:10EF9A00476E120049C0D9FF4AC0DAFFDECFF6FF3A
:10EFAA00DDCFF7FF0800F550056E066A47C007F087
:10EFBA0048C008F073EC64F049C0D9FF4AC0DAFFD0
:10EFCA00DE2A000EDD22D5D7000E0001846F000E66
:10EFDA00866F000E856F010EEAEC61F0110E786EF5
:10EFEA003A0EE82EFED7782EFCD700D0800EEAEC37
:10EFFA0061F07C0E666EFE0E676E55EC62F0C00E16
:10F00A00EAEC61F02D0E666EFF0E676E55EC62F04B
:10F01A00900EEAEC61F07A0E666EFF0E676E55ECA2
:10F02A0062F0D00EEAEC61F03A0E666EFF0E676E81
:10F03A0055EC62F081A2FED781380F0B0F0B00014D
:10F04A00FD6F05D0010E01D0000E856F0ED0FD5167
:10F05A00786E796A7950000AD8A407D078500C0AD9
:10F06A00D8B4F2D7020AD8B4EDD781B2FED7010ECE
:10F07A00EAEC61F0110E786E3A0EE82EFED7782E81
:10F08A00FCD700D0800EEAEC61F0910E666EFF0E9E
:10F09A00676E55EC62F0C00EEAEC61F0AB0E666E7C
:10F0AA00FE0E676E55EC62F0900EEAEC61F0170EF8
:10F0BA00666EFE0E676E55EC62F081A2FED781384D
:10F0CA000F0B0F0B0001FD6F05D0000E01D0010ED2
:10F0DA00846F0ED0FD51786E796A7950000AD8A4EF
:10F0EA0007D07850000AD8B4F2D70D0AD8B4EDD7B1
:10F0FA0081B2FED7D00EEAEC61F0A40E666EFF0E66
:10F10A00676E84C068F0696A55EC62F081A2FED726
:10F11A0081380F0B0F0B0001FD6F15D0000E11D0B7
:10F12A00010E0FD0020E0DD0030E0BD0040E09D023
:10F13A00050E07D0060E05D0070E03D0080E01D023
:10F14A00090E866F26D0FD51786E796A7950000AC9
:10F15A00D8A41FD07850000AD8B4E2D7010AD8B48C
:10F16A00E1D7030AD8B4E0D7060AD8B4DFD7010A30
:10F17A00D8B4DED7030AD8B4DDD70E0AD8B4DCD7A0
:10F18A00010AD8B4DBD7030AD8B4DAD7070AD8B445
:10F19A00C5D781B2FED7000184510A0DF3508625E6
:10F1AA00826F8551D8B409D074C0D9FF75C0DAFF0F
:10F1BA00DF50786E8251785C06D074C0D9FF75C072
:10F1CA00DAFFDF508225816F74C0D9FF75C0DAFF7C
:10F1DA0081C0DFFF010EEAEC61F0110E786E3A0E83
:10F1EA00E82EFED7782EFCD700D0800EEAEC61F02C
:10F1FA00BA0E666EFE0E676E74C0D9FF75C0DAFF6E
:10F20A00DF50786E7850686E696A55EC62F0C00E0D
:10F21A00EAEC61F0470E666EFF0E676E55EC62F01F
:10F22A00900EEAEC61F0D50E666EFF0E676E55EC35
:10F23A0062F08B82000E936E000E8A6E82C00BF013
:10F24A000C6A0F0E0E6E550E0D6E42EC62F00BC07C
:10F25A0011F00CC012F085C013F0F8EC67F08B9235
:10F26A009368000E8A6E00018251D8A40CD00D0E4C
:10F27A00796EAF0E786EB60EE82EFED7782EFCD7D2
:10F28A00792EFAD700D0010EEAEC61F0110E786EF1
:10F29A003A0EE82EFED7782EFCD700D0800EEAEC84
:10F2AA0061F08C0E666EFE0E676E55EC62F0C00E53
:10F2BA00EAEC61F02D0E666EFF0E676E55EC62F099
:10F2CA00900EEAEC61F07A0E666EFF0E676E55ECF0
:10F2DA0062F0D00EEAEC61F03A0E666EFF0E676ECF
:10F2EA0055EC62F081A2FED781380F0B0F0B00019B
:10F2FA00FD6F05D0010E01D0000E856F0ED0FD51B5
:10F30A00786E796A7950000AD8A407D078500C0A26
:10F31A00D8B4F2D7020AD8B4EDD781B2FED7010E1B
:10F32A00EAEC61F0110E786E3A0EE82EFED7782ECE
:10F33A00FCD700D0800EEAEC61F0910E666EFF0EEB
:10F34A00676E55EC62F0C00EEAEC61F0AB0E666EC9
:10F35A00FE0E676E55EC62F0900EEAEC61F0280E34
:10F36A00666EFE0E676E55EC62F081A2FED781389A
:10F37A000F0B0F0B0001FD6F05D0000E01D0010E1F
:10F38A00846F0ED0FD51786E796A7950000AD8A43C
:10F39A0007D07850000AD8B4F2D70D0AD8B4EDD7FE
:10F3AA0081B2FED7D00EEAEC61F0A40E666EFF0EB3
:10F3BA00676E84C068F0696A55EC62F081A2FED774
:10F3CA0081380F0B0F0B0001FD6F15D0000E11D005
:10F3DA00010E0FD0020E0DD0030E0BD0040E09D071
:10F3EA00050E07D0060E05D0070E03D0080E01D071
:10F3FA00090E866F26D0FD51786E796A7950000A17
:10F40A00D8A41FD07850000AD8B4E2D7010AD8B4D9
:10F41A00E1D7030AD8B4E0D7060AD8B4DFD7010A7D
:10F42A00D8B4DED7030AD8B4DDD70E0AD8B4DCD7ED
:10F43A00010AD8B4DBD7030AD8B4DAD7070AD8B492
:10F44A00C5D781B2FED7000184510A0DF350862533
:10F45A00836F8551D8B409D076C0D9FF77C0DAFF57
:10F46A00DF50786E8351785C06D076C0D9FF77C0BA
:10F47A00DAFFDF508325806F76C0D9FF77C0DAFFC5
:10F48A0080C0DFFF010EEAEC61F0110E786E3A0ED1
:10F49A00E82EFED7782EFCD700D0800EEAEC61F079
:10F4AA00BA0E666EFE0E676E76C0D9FF77C0DAFFB7
:10F4BA00DF50786E7850686E696A55EC62F0C00E5B
:10F4CA00EAEC61F0470E666EFF0E676E55EC62F06D
:10F4DA00900EEAEC61F0DD0E666EFF0E676E55EC7B
:10F4EA0062F08B82000E936E000E8A6E83C00BF060
:10F4FA000C6A0F0E0E6E550E0D6E42EC62F00BC0CA
:10F50A0011F00CC012F085C013F085EC67F08B92F5
:10F51A009368000E8A6E00018351D8A40CD00D0E98
:10F52A00796EAF0E786EB60EE82EFED7782EFCD71F
:10F53A00792EFAD700D072C0D9FF73C0DAFF000E55
:10F54A00DF6E1200000E00018A6F000E8B6F000E34
:10F55A008C6F000E8D6F000E966F000E926F000E6C
:10F56A00956F010E936F000E976F010E906F010E4B
:10F57A00916F010E946F74C0D9FF75C0DAFF000E47
:10F58A00DF6E8B82000E936E000E8A6E010EEAEC1D
:10F59A0061F0110E0001806F3A0EE82EFED7802F1F
:10F5AA00FCD700F0010EA5EC62F08B9A76C0D9FF69
:10F5BA0077C0DAFFDF50D8A415D078C0D9FF79C058
:10F5CA00DAFFDF50D8A40ED000019351D8A40AD094
:10F5DA009451D8A407D072C0D9FF73C0DAFF020EC3
:10F5EA00DF6E120082B0F7D7020EA5EC62F0050EAC
:10F5FA000001816F710E806F570EE82EFED7802FA3
:10F60A00FCD7812FFAD700D08988110E0001806FAC
:10F61A003A0EE82EFED7802FFCD700F0899882B0E8
:10F62A0036D000019351D8A430D09451D8A42DD00B
:10F63A0078C0D9FF79C0DAFFDF50D8B40FD00F0EE7
:10F64A00126E550E116E010E136E85EC67F078C0BE
:10F65A00D9FF79C0DAFFDF06010E15D076C0D9FFCF
:10F66A0077C0DAFFDF50D8B410D00F0E126E550EE5
:10F67A00116E010E136EF8EC67F076C0D9FF77C0F1
:10F68A00DAFFDF06000E0001916F82A002D08B8A9A
:10F69A00A2D780AAFAD774C0D9FF75C0DAFFDF2AC9
:10F6AA0074C0D9FF75C0DAFFDF500001806F800592
:10F6BA00976FDDEC61F0000E036E110E026EE5EC41
:10F6CA0061F0000E0001806FFF0E816F000E30ECBA
:10F6DA0062F00001826F8251846F836B80518317BD
:10F6EA0081518417010E30EC62F00001856F85515B
:10F6FA0083118E6F84518F6FE1EC61F0C50E136E2A
:10F70A00200E146EF00E156E3E0E166E8EC001F0AF
:10F71A008FC002F0036A046A000E0BEC69F001C0A4
:10F72A000FF002C010F003C011F004C012F09BECFD
:10F73A0073F00FC028F010C029F011C02AF012C0CF
:10F74A002BF0330E2C6E330E2D6E0B0E2E6EC10E59
:10F75A002F6E15EC72F028C08AF029C08BF02AC0EF
:10F76A008CF02BC08DF0000E136E000E146E200E5E
:10F77A00156E410E166E8AC00FF08BC010F08CC049
:10F78A0011F08DC012F09BEC73F00FC028F010C07E
:10F79A0029F011C02AF012C02BF05DEC66F00001CE
:10F7AA009751040D74C080F075C081F0F350802722
:10F7BA00F4508123050E8025D96E000E8121DA6E60
:10F7CA0028C0DEFF29C0DDFF800EEAEC61F0DD0E05
:10F7DA00666EFD0E676E00019751040D74C080F0CD
:10F7EA0075C081F0F3508027F4508123050E8025DF
:10F7FA00D96E000E8121DA6EDECF01F0DDCF02F084
:10F80A00000E046E0A0E036EBCEC63F001C068F0D1
:10F81A0002C069F000019751040D74C082F075C0EE
:10F82A0083F0F3508227F4508323050E8225D96E84
:10F83A00000E8321DA6EDECF01F0DDCF02F0000E7A
:10F84A00046E0A0E036E76EC63F001C06AF002C021
:10F85A006BF055EC62F000019751040D74C080F012
:10F86A0075C081F0F3508027F4508123040E80255F
:10F87A00D96E000E8121DA6E000EDF6E9751040DEB
:10F88A0074C080F075C081F0F3508027F450812352
:10F89A00030E8025D96E000E8121DA6E000EDF6E0E
:10F8AA00530EE82EFED700F082B095D60001935190
:10F8BA00D8A43DD09451D8B40FD08D84210E000124
:10F8CA00806F760EE82EFED7802FFCD700F08D943D
:10F8DA00000E0001946F1AD09151D8B40CD08D84C7
:10F8EA00210E0001806F760EE82EFED7802FFCD7FE
:10F8FA0000F08D940BD08C82210E0001806F760E61
:10F90A00E82EFED7802FFCD700F08C921A0E000149
:10F91A00816F000E806FC40EE82EFED7802FFCD7B1
:10F92A00812FFAD700D000F0010E0001936F89965B
:10F93A00530EE82EFED700F082B04DD6040EA5EC89
:10F94A0062F0070E0001816F580E806F590EE82E83
:10F95A00FED7802FFCD7812FFAD700D0010E0001E5
:10F96A00906F08D082B404D0000E0001906F04D0CA
:10F97A0082B031D680B4F6D78986530EE82EFED7E8
:10F98A0000F082B028D682B4FED700019051D8B4D4
:10F99A0003D284B202D0020E05D084B002D0010E86
:10F9AA0001D0000E966F010EEAEC61F0110E000113
:10F9BA00806F3A0EE82EFED7802FFCD700F0C00EDB
:10F9CA00EAEC61F09C0E666EFF0E676E96C068F0F8
:10F9DA00696A55EC62F000019751D8A402D0020E70
:10F9EA003AD09751806F816BD89080378137D89001
:10F9FA008037813774C082F075C083F080518227C6
:10FA0A0081518323010E8225D96E000E8321DA6E7D
:10FA1A00DECF84F0DDCF85F09751040D74C086F0F7
:10FA2A0075C087F0F3508627F4508723050E862584
:10FA3A00D96E000E8721DA6EDECF88F0DDCF89F02D
:10FA4A008451885F8551895B2C0E885D010E895926
:10FA5A00D8B003D0010E926F39D09751806F816B65
:10FA6A00D89080378137D8908037813774C082F038
:10FA7A0075C083F08051822781518323010E82252C
:10FA8A00D96E000E8321DA6EDECF84F0DDCF85F0E9
:10FA9A009751040D74C086F075C087F0F35086271D
:10FAAA00F4508723050E8625D96E000E8721DA6E5B
:10FABA00DECF88F0DDCF89F08451885F8551895B7C
:10FACA002C0E885D010E8959D8B089D7530EE82EBD
:10FADA00FED700F082B07FD5070EA5EC62F0530E78
:10FAEA00E82EFED700F082B4FED7530EE82EFED7DA
:10FAFA0000F082B070D500019251965DD8A024D052
:10FB0A009751040D74C080F075C081F0F3508027BE
:10FB1A00F4508123040E8025D96E000E8121DA6EFD
:10FB2A0096C0DFFF9751040D74C080F075C081F054
:10FB3A00F3508027F4508123030E8025D96E000EDE
:10FB4A008121DA6E000E27D196C095F0965192C0A7
:10FB5A0080F0816B805F000E815B80058111D8A4E3
:10FB6A001DD08980210E0001806F760EE82EFED707
:10FB7A00802FFCD700F089900F0E0001816F960E3E
:10FB8A00806FB80EE82EFED7802FFCD7812FFAD7C8
:10FB9A0000F00001952B000E936FD9D0965192C0B8
:10FBAA0080F0816B805F000E815B81BFD0D0815174
:10FBBA0004E1020E805DD8A0CAD08980210E00011E
:10FBCA00806F760EE82EFED7802FFCD700F0899042
:10FBDA000001952B000E936F82A033D09751040D2C
:10FBEA0074C080F075C081F0F3508027F4508123EF
:10FBFA00040E8025D96E000E8121DA6E95C0DFFFD2
:10FC0A009751040D74C080F075C081F0F3508027BD
:10FC1A00F4508123030E8025D96E000E8121DA6EFD
:10FC2A009651955DDF6E0F0E0001816F960E806F03
:10FC3A00B80EE82EFED7802FFCD7812FFAD700F016
:10FC4A00CAD49451D8B41CD0100E0001816FDB0EB7
:10FC5A00806F640EE82EFED7802FFCD7812FFAD74B
:10FC6A0000F08D84210E0001806F760EE82EFED7FB
:10FC7A00802FFCD700F08D94000E0001946F3FD0C6
:10FC8A0078C0D9FF79C0DAFFDF50D8B419D00F0E87
:10FC9A00126E550E116E010E136E85EC67F08D848F
:10FCAA0078C0D9FF79C0DAFFDF06210E0001806F24
:10FCBA00760EE82EFED7802FFCD700F08D941FD049
:10FCCA0076C0D9FF77C0DAFFDF50D8B487D70F0ED6
:10FCDA00126E550E116E010E136EF8EC67F08C82DF
:10FCEA0076C0D9FF77C0DAFFDF06210E0001806FE8
:10FCFA00760EE82EFED7802FFCD700F08C921A0ED3
:10FD0A000001816F000E806FC40EE82EFED7802F8F
:10FD1A00FCD7812FFAD700D000F08980210E00018C
:10FD2A00806F760EE82EFED7802FFCD700F08990E0
:10FD3A000F0E0001816F960E806FB80EE82EFED767
:10FD4A00802FFCD7812FFAD700F00001952B97510D
:10FD5A00040D74C080F075C081F0F3508027F45010
:10FD6A008123040E8025D96E000E8121DA6E95C09A
:10FD7A00DFFF9751040D74C080F075C081F0F35015
:10FD8A008027F4508123030E8025D96E000E81212D
:10FD9A00DA6E9651955DDF6E050EA5EC62F082B4BF
:10FDAA00FED7530EE82EFED700F082B014D474C0EA
:10FDBA00D9FF75C0DAFF090EDF64DBEF7AF00BD4E6
:10FDCA000000470101090419550F04100A140540DF
:10FDDA0000501044697374616E63653A2025687532
:10FDEA002E256875636D0044697374616E63653AA4
:10FDFA002568752E256875636D004465706C6F798A
:10FE0A003A25752041667465723A257500746F70DB
:10FE1A00206D6167202830312D3133293A00626F15
:10FE2A0074206D6167202830312D3133293A003C26
:10FE3A002A20202844294261636B202020233E0087
:10FE4A002842294C6F6773202843295365747570BB
:10FE5A00003230253032782D253032782D25303257
:10FE6A0078002831292028322920283329202834CB
:10FE7A002900546F70206D616720666F7277617216
:10FE8A006400426F74206D616720666F72776172D9
:10FE9A00640052756E20636F6D706C6574656421C1
:10FEAA000073706163657320746F206D6F766500EF
:10FEBA00257520746972652873292063616E004D67
:10FECA006167617A696E652063616E277400253007
:10FEDA0032783A253032783A253032780043686FE2
:10FEEA006F7365206C6F6720746F00686F6C642095
:10FEFA002575207469726573002320737570706CA0
:10FF0A006965643A25750023206F6620706F6C65F9
:10FF1A00733A257500284429204D61696E206D6564
:10FF2A006E75006F72206261636B776172643F0065
:10FF3A00282A29204261636B776172640062652016
:10FF4A006C6F6164656420696E00284329205361DF
:10FF5A0076652072756E002842292052756E2069D6
:10FF6A006E666F004F702074696D653A25753A00A8
:10FF7A0028232920466F7277617264006F76657252
:10FF8A0077726974653A00496E7075742074697283
:10FF9A0065004265666F72653A2025750028432917
:10FFAA00506F6C6573200046696E697368656400FA
:10FFBA00284429204261636B0028412953746172E5
:10FFCA007400506F6C652023257500746F70206D66
:10FFDA00616700626F74206D61670028442942617D
:10FFEA00636B00766965773A00685800687500683F
:05FFFA0078003000005A
:020000040020DA
:08000000FFFFFFFFFFFFFFFF00
:020000040030CA
:0E000000FF021F1EFF8381FF0F400FE00F4025
:00000001FF
