:0400000007EF00F016
:0A0008002A82FAED08F0DBEF09F0A0
:10100000003132334134353642373839432A3023C0
:10101000440050100004104043484F434F4C41548B
:10102000453F210043686F636F6C6174653F002822
:101030006E756C6C290025730000000E8C6E000E1E
:10104000956E0F0EC16EF0864AEC09F0F28E000E1E
:10105000226E000E236E000E246E000E256E240EEE
:10106000276E100E286E2950D8B420D0000E296E9D
:1010700081380F0B0F0B266E170EF66E100EF76EE3
:10108000000EF86E0800F5508009E7EC09F02650D4
:10109000010D010EF324F66E100EF420F76EF86ABF
:1010A000000EF8220800F550E1EC09F022C013F020
:1010B00023C014F024C015F025C016F0E80E176EFA
:1010C000030E186E000E196E000E1A6E7FEC09F0FA
:1010D0001350141015101610D8A424D0800EE7EC6D
:1010E00009F0070E216E7D0EE82EFED7212EFCD7CB
:1010F00000F0360E176E100E186E27C019F028C0BB
:101100001AF0A0EC08F0240E271804E1100E28189D
:10111000D8B404D0240E276E100E03D0180E276EFC
:10112000100E286E010E2226000E232224222522D4
:10113000040E216E3E0EE82EFED7212EFCD793D74B
:10114000190E1C6E000E1D6E47D0250E1E18D8B449
:1011500004D01E50E1EC09F03FD0000E1B6E2BD0E6
:101160001CC0D9FF1DC0DAFFDECF1FF0DDCF20F09D
:10117000020E1C26000E1D221F502010D8A410D0D5
:101180002F0E1F6E100E206E0BD01FC0F6FF20C05A
:10119000F7FFF86A0800F550E1EC09F01F4A202A31
:1011A0001FC0F6FF20C0F7FFF86A0800F5500009DD
:1011B000D8B412D0EAD717C0F6FF18C0F7FF174A05
:1011C000182AF86A0800F5CF1EF01E50000AD8B49D
:1011D0001200730AD8B4C4D717C0F6FF18C0F7FFBF
:1011E000174A182AF86A0800F5CF1EF01E50D8B426
:1011F0001200ABD70600FACF01F0FBCF02F0E9CF27
:1012000003F0EACF04F0E1CF05F0E2CF06F0D9CF4A
:1012100007F0DACF08F0F3CF09F0F4CF0AF0F6CFF9
:101220000BF0F7CF0CF0F8CF0DF0F5CF0EF02AC091
:101230000FF02BC010F02CC011F02DC012F0F0A058
:1012400003D0010E296EF09012C02DF011C02CF0C9
:1012500010C02BF00FC02AF00EC0F5FF0DC0F8FF34
:101260000CC0F7FF0BC0F6FF0AC0F4FF09C0F3FF84
:1012700008C0DAFF07C0D9FF06C0E2FF05C0E1FFE2
:1012800004C0EAFF03C0E9FF02C0FBFF01C0FAFF90
:101290002A921100310E176EB20EE82EFED7172ECD
:1012A000FCD700D08C94030EC7EC09F0110E176E1A
:1012B0003A0EE82EFED7172EFCD700D0030EC7EC4F
:1012C00009F07D0EE82EFED7320ED2EC09F0280E82
:1012D000D2EC09F0080ED2EC09F0010ED2EC09F0C4
:1012E000110E176E3A0EE82EFED7172EFCD700D03F
:1012F000060ED2EC09F00F0EE7EC09F012001750C1
:10130000181019101A10D8B424D0010E1B6E06D074
:10131000D8901736183619361A361B2A1AAEF8D74F
:101320001750135C18501458195015581A50165865
:10133000D8A008D01750135E1850145A1950155AD7
:101340001A50165AD8901A321932183217321B2EE8
:10135000E7D713C013F014C014F015C015F016C071
:1013600016F01200000EF2BE010E136EF29E8C8675
:10137000140EE82EFED700D08C96530EE82EFED722
:1013800000F013B002D0F29E01D0F28E1200146E63
:101390008C500F0B8C6E1438F00B8C108C6EB2ECE2
:1013A00009F01200156E15380F0BC7EC09F0155037
:1013B000C7EC09F01200296A2A902A9200011DEF59
:1013C00008F0166E8C841650D2EC09F01200166EDE
:0A13D0008C941650D2EC09F01200C4
:020000040020DA
:08000000FFFFFFFFFFFFFFFF00
:020000040030CA
:0E000000FF021F1EFF8381FF0F400FE00F4025
:00000001FF
